:10098300454E5445522050494E2E2E2E004143438E
:10099300455353204752414E54454400494E434F1B
:1009A30052524543542050494E2E2E2E00554E4C44
:1009B3004F434B494E472E2E2E00444F4F52204358
:1009C3004C4F534544004C4F434B494E472E2E2E1C
:0E09D30000444F4F52204953204F50454E00D4
:080BB900061931323334350016
:100A3D00D2807F0F120B7C7F38120B7C7F01120B43
:010A4D007C2C
:100A4E00E4F50DF50E75880175A8817F80120B7C7B
:100A5E00120A957FE87E03120B307FC0120B7C7456
:100A6E0019250EF8E6601B1208007414250EF8A660
:100A7E00077FE87E03120B30050EE50E70E1050DC3
:050A8E0080DD1209E10A
:020A930080B928
:090B27007F2A120BA77F647E00F7
:100B3000E4FDFCC3ED9FEC9E5015E4FBFA0BBB00FB
:0F0B4000010AEB640A4A70F50DBD00010C80E458
:010B4F002283
:070B75007F01120B7C7F8160
:100B7C008F90C2B5C2B6D2B77FE87E03120B30C2DB
:020B8C00B7228E
:100BA7008F90D2B5C2B6D2B77FE87E03120B30C2A0
:020BB700B72263
:060A95007BFF7A09798362
:060A9B008B0F8A10891187
:100AA100E4F512F513AB0FAA10A911851382851273
:100AB10083120AFAFF600D120BA70513E51370E507
:0B0AC100051280E17FE87E03020B308D
:10080000E4FFFEEF4E6003020898C2A0D2A1D2A27C
:10081000D2A320A406120B277F312220A506120B9B
:10082000277F322220A606120B277F3322D2A0C2B6
:10083000A1D2A2D2A320A406120B277F342220A586
:1008400006120B277F352220A606120B277F3622A1
:10085000D2A0D2A1C2A2D2A320A406120B277F3716
:100860002220A506120B277F382220A606120B276E
:100870007F3922D2A0D2A1D2A2C2A320A406120BF9
:10088000277F2A2220A506120B277F302230A603BD
:08089000020803120B277F236D
:01089800223D
:1009E100E51965147036E51A65157030E51B651655
:1009F100702AE51C65177024E51D6518701E7FE8D7
:100A01007E03120B30120B757BFF7A097990120A63
:100A11009B120B507F01120B7C020B8E7F01120B7C
:100A21007C7F80120B7C7BFF7A09799F120A9B7F66
:0C0A3100407E42120B307F01120B7C2231
:070B50007FE87E03120B3069
:100B5700D2B0C2B17FC1120B7C7BFF7A0979B01288
:0E0B67000A9B7F407E42120B30C2B0C2B12208
:100ACC00C2B0D2B1120B757BFF7A0979BD120A9BA9
:100ADC007FC1120B7C7BFF7A0979C9120A9B7F407C
:0E0AEC007E42120B30C2B0C2B17F01020B7C01
:03000300020925CA
:10092500C0E0C0F0C083C082C0D075D000C000C098
:1009350001C002C003C004C005C006C007120B7584
:100945007BFF7A097990120A9B120B50120B8E7F4E
:1009550080120B7C120A957FE87E03120B307FC054
:10096500120B7CD007D006D005D004D003D002D01E
:0E09750001D000D0D0D082D083D0F0D0E032BC
:100B8E00120B757BFF7A0979D4120A9B7F807E96B1
:090B9E00120B302080FD020ACC8C
:030000000208995A
:0C089900787FE4F6D8FD75811E0208E0AF
:100AFA00BB010CE58229F582E5833AF583E02250B1
:100B0A0006E92582F8E622BBFE06E92582F8E222FA
:0D0B1A00E58229F582E5833AF583E4932214
:1008A500020A3DE493A3F8E493A34003F68001F222
:1008B50008DFF48029E493A3F85407240CC8C33354
:1008C500C4540F4420C8834004F456800146F6DF23
:1008D500E4800B0102040810204080900BB9E47EEF
:1008E500019360BCA3FF543F30E509541FFEE49318
:1008F500A360010ECF54C025E060A840B8E493A3DF
:10090500FAE493A3F8E493A3C8C582C8CAC583CA09
:10091500F0A3C8C582C8CAC583CADFE9DEE780BEC1
:010BC1000033
:00000001FF
